:02000000722D5F
:10000800FF00030E8301D3000A08D1008A018B1C6C
:1000180010288B100130B8000B1D17280B11FF306A
:1000280081000130A8000C1C20280C100B308F0018
:10003800DC308E000130C70051088A00530E83005F
:06004800FF0E7F0E09000F
:04004E0000000800A6
:10005200103083120313FD00FD0B2D280000080051
:10006200083083120313FC002330FD00FD0B3728F8
:06007200FC0B372808001A
:1000780083160313A51B432883128613452883126E
:1000880086178316251B4B28831206134D288312C7
:1000980006178316A51A5328831286125528831229
:1000A80086168316251A5B28831206125D2883128A
:1000B800061652186128061562280611861527208B
:1000C80086118316A5196B28831286136D2883124F
:1000D8008617831625197328831206137528831229
:1000E80006178316A5187B28831286127D2883128B
:1000F80086168316251883288312061285288312EC
:1001080006165218892806158A28061186152720EA
:0E0118008611521C91283120922829200800BF
:0E012600F201F101F001F801F30100300800D0
:100134007B15FB1FA4280130F300F201F101F0014B
:08014400FA0DF20CFF30080077
:08014C00FA1FF2130030080055
:10015400FB14FB1FB428FF30F300F200F100F000A1
:08016400FA0DF20CFF30080057
:10016C0083120313FB01FA01F9018030F800F10C42
:10017C00F00C031CCA287408F90775080318750FCE
:10018C00FA070318FB0A0310F01FD2287408FA07A9
:10019C0075080318750FFB07FB0CFA0CF90CF80C1F
:1001AC00031CBD287B08F3007A08F2007908F100E3
:0601BC007808F0000800C5
:1001C20083120313521083162408A5003C205214F4
:0201D200080023
:1001D4007B14FB1FF528F201FA1FFF30F200F10037
:0A01E400F000FA0DF20CFF300800E5
:0601EE00FB15FF300800C4
:1001F400A0017208031D0F297108F2007008F100B4
:10020400F001A0157208031D0F297108F200F10115
:10021400A0112016720803191D292008F302031DDA
:10022400031C21290310F21B2529F00DF10DF20DF9
:10023400F30B152921290130FC00932028290230D1
:0E024400FC009A2028290430FC00A6200800A7
:100252007C185F29FC1830297C197E292929A001E4
:100262007208031D50297108F2007008F100780825
:10027200F000F801A0157208031D50297108F20060
:100282007008F100F001A01120167208031D502918
:100292007108F200F101A0157208031972292008F1
:1002A200F302031D031C76290310F21B5F29F80DCC
:1002B200F00DF10DF20DF30B562976297B1B701C04
:1002C2007A29F81F7A29F00A0319F10A0319F20AA6
:1002D200031D7A29F20CF10CF00CF30A03197E29A2
:1002E2007A290130FC00932081290230FC009A20F7
:1002F20081290430FC00A62081290830FC00AA20B4
:0403020000000800EF
:0E030600073083120313FD00FD0B872908004A
:1003140083120313F8010830FC00700DF80D740803
:10032400F80203189729F8070310F00DFC0B8F2926
:020334000800BF
:0E0336008312031350088A004F08820008004B
:1003440083120313F801F9011030FC00710DF80D4C
:10035400F90D7408F8027508031C750FF9020318E7
:10036400BA297408F80775080318750FF9070310FC
:0A037400F00DF10DFC0BA8290800A4
:10037E0083160313A001A10183126E08F2006E080A
:10038E00F300720884000008203A031DD429831656
:10039E0020082104031DD429E22983160130A00070
:1003AE000030A100720884000008F0007308840079
:1003BE0070088000F30A7208F100F20A71088400D6
:1003CE000008003A031DC82983126E08F0000800C9
:1003DE0083120313EF016F086E07840000080319E0
:1003EE00012A6F086E07840000088316A400E1201E
:0603FE00EF0AF2290800DD
:1004040083120313FB01FC01FA01730803192F2A59
:10041400FA13F2178630F302F31B132A0319132A73
:10042400312AF309F30A08307302031C202AF3006B
:10043400F20DF2017308031D0310272A7308031930
:10044400272A0310F20CF30B232A7B1B721C2F2A7E
:10045400031C2F2AF20A0319362AF101392A7B14C4
:10046400FB1F3C2AF1013C2A0130FC003E2A0030EB
:10047400FC003E2AFF30FC00FC080319422AEA2053
:060484007208F000080000
:10048A00831203137008F800FB01FC019E30F3008D
:10049A00FA01F201F101F0010230FC002921080001
:1004AA00831203137008F8007108F000F101F201D9
:1004BA00F301FB01FC019630F300FA017008F10028
:0C04CA007808F000F801F201FA200800A8
:1004D600831203139F01C0309F0483161F179F17B3
:1004E60083126E08F000F00D7010F00D7010F00D14
:1004F600701070089F041F1483211F151F1D852A65
:100506000000812A1F101E08F100F00183161E0844
:08051600F0040030F1040800BC
:10051E0083120313EE0105306E0203189F2A6E0834
:10052E00831622078400203080008312EE0A922A5E
:10053E006E0883162207840080018312EE036E0874
:10054E00831622078312EF000A30F400F50183169A
:10055E002008F0002108F100A2217808F0007908A7
:10056E00F1003030F0076F088400700880000A3008
:10057E00F400F50183162008F0002108F100A221F5
:10058E0070088316A0007108A10000307106031DCB
:10059E00D22A00307006031DD52AD82A8312EE0304
:0405AE00A62A080071
:1005B20083160313A001033020020318E92A20083E
:1005C20083126F078400203080008316A00ADC2A81
:1005D200200883126F07840080018316A00320087D
:1005E20083126F078316A1000A30F40083126E088B
:1005F200F0008A217808F0003030F00783162108D5
:100602008400700880000A30F40083126E08F00043
:100612008A217008EE007008003A031D112B142B7A
:080622008316A003F02A080072
:10062A00831603131208013EF000F1010318F10AC0
:10063A0083126E08F400F501B6200630F200700845
:10064A00F4007108F50072080319302BF50CF40C4C
:10065A00F513FF3E292B0430F1007408F0007108ED
:10066A0003193B2BF00D7010FF3E352B303070050F
:10067A00F3007408F0007508F100F10CF00CF113A6
:10068A00F10CF00CF11370089B000F309D057308F4
:04069A009D040800B3
:10069E00831203137408003A031D6A2B7508003A7F
:1006AE00031D6A2B7608003A031D6A2B7708003A61
:1006BE00031D6A2BFF30F000FF30F1007F30F20097
:1006CE00FF30F300052C8312031377080319F92B5F
:1006DE0073080319FC2B720876068039FA00F2179C
:1006EE00F617A0017208F8007108FC007008FD00F2
:1006FE007408FD027508031C750FFC027608031CB6
:10070E00760FF802F801FC01FD01031C952B031076
:10071E00F20CF10CF00CF80C0130A0007708F3028B
:10072E00031C9F2B7E302007F3070318FF2BA42BEF
:10073E007E302007F307031C022C1830FA07FD0D3C
:10074E00FC0DF80DF00DF10DF20DA00D7408F00278
:10075E007508031C750FF1027608031C760FF20262
:10076E00760DA004201CBD2B7D14C82B7408F00739
:10077E0075080318750FF10776080318760AF20745
:10078E007D10FA031F307A05031DA62B7B1B7D1CE3
:10079E00EF2B0310F00DF10DF20DA00D7408F00209
:1007AE007508031C750FF1027608031C760FF20212
:1007BE00760D20040139FD070318FC0A0319F80A07
:1007CE00031DEF2BF80CFC0CFD0CF30A0319FF2B89
:1007DE00FA1FF8137808F2007C08F1007D08F0008B
:1007EE000030042C0130F720042C02309320042C0E
:0E07FE000430AA20042C08309A2000000800C5
:10080C0083120313FB017308031D770803195D2C76
:10081C0072087606FA007708F3077E30031C1A2C50
:10082C00F3020318602C1D2CF302031C632C7208BA
:10083C00F8007108FC007008FD00F817F61703109B
:10084C00F201F101F0011830A0007D1C372C740866
:10085C00F00775080318750FF10776080318760F63
:10086C00F207F20CF10CF00CF80CFC0CFD0C031064
:10087C00A00B2B2CF21B472CF80DF00DF10DF20DEB
:10088C00F3037B1B701C592CF81F592CF00A03190D
:10089C00F10A0319F20A031D592CF20CF10CF00C9D
:1008AC00F30A0319602CFA1FF2130030652C013087
:1008BC009320652C0230AA20652C04309A2000006D
:0208CC00080022
:1008CE00792C803083160313A0008C2CC030A0002E
:1008DE008C2C9430A0008C2CD430A0008C2C80302A
:1008EE00A0008C2C831603132008013A0319682CE0
:1008FE002008023A03196D2C2008033A0319702CB4
:10090E002008043A0319732C762C2103F0002008DA
:10091E00F0077008A0007008A5003C205210EE01F0
:10092E006E0883162207840000080319A82C831270
:10093E006E088316220784000008A400E120EE0A48
:08094E00972C831252140800DB
:10095600831603138710831212150C309D040800AA
:0C096600831203139B011D129D12080058
:1009720083160313861106110612861206138613B6
:10098200831286110611861306138612061231206F
:100992003120312086160616861527208611312031
:1009A20086152720861131208615272086113120B1
:1009B20006128615272086113120861527208611DA
:1009C2008612861786152720861131208613061671
:1009D20086152720861106128615272086113120BA
:1009E20086152720861106168615272086113120A6
:1009F20006128615272086118617061786160616F2
:0C0A0200861527208611312052140800B0
:100A0E0083120313FB01FC01FA0173080319462D2F
:100A1E00F2178E30F302F31B172D0319172D492DE4
:100A2E00F309F30A08307302031C2C2DF300F10DA9
:100A3E007208F100F20108307302031C2C2DF10D27
:100A4E00F1017308031D0310342D73080319342D9F
:100A5E000310F20CF10CF30B2F2D7B1B711C3E2D92
:100A6E00031C3E2DF10A0319F20AF21B552DFA1F33
:100A7E00582DF209F109F10A0319F20A582DF20163
:100A8E00F101582D7B14FB1F5B2DF201FA1F5B2D1C
:100A9E00FF30F200F100FA0DF20C5B2D0130FC007C
:100AAE005D2D0030FC005D2DFF30FC00FC080319AD
:0E0ABE00612DEA207108F0007208F1000800B6
:100ACC009B218A110A128000840ACF0A0319D00ACA
:080ADC00F003031D662D080064
:100AE400F2263F3083120313E3000630E4005B3048
:100AF400E5004F30E6006630E7006D30E8007D30F9
:100B0400E9000730EA007F30EB006F30EC00ED01C4
:100B140083168801831288018316860106148701CF
:100B24008312871607138B170B170C1083160C14DC
:100B34008B100B160B118B16DC3083128E000B30CE
:100B44008F00FF3081003130900007308316810020
:100B540080309F00B92401308316A5003C20121078
:100B64009210C73083169200B324AB24013083164D
:100B7400A0000130A1002930A20067240630FB0048
:100B84001330FC00AD30FD00FD0BC62DFC0BC62D53
:100B9400FB0BC62D0000000001308316A5003C208D
:100BA4000C308316A5003C200730EE006B22700841
:100BB4008312D40045223530F4005E30F5007A30DB
:100BC400F6007D30F700062402227008D4000630B7
:100BD400EE006B2270088312D9007108DA005522E6
:100BE4000030F4000030F5004030F6008230F700A9
:100BF40006240030F400C030F5007F30F600883061
:100C0400F7004F2307257008D9007108DA00280877
:100C14000319332E0A30F4005408F0008A217008B6
:100C2400E1000A30F4005408F0008A217808F0004A
:100C34007008E200A8016D08013A031D2A2E8713EB
:100C44006108633E8400000888008817ED01332E94
:100C540088136208633E8400000888008717013007
:100C6400ED0047080319642EC7015408EE005530FF
:100C7400EF00D922013083160313A0000130A10034
:100C84004830A20067245530EE00BF217008EE0002
:100C9400EF2159088316A00083125A088316A10075
:100CA4005B30A2008F22023083160313A0000130B0
:100CB400A1004030A20067245B30EE00BF21700821
:100CC400EE00EF2138080319852EB8010130831690
:100CD400A5003C2001308316A0000130A10039306A
:100CE400A20067245B30EE00BF217008EE00EF2104
:100CF400FF30EE00152302308316A0000130A1005E
:100D04002130A20067242D305402031C8D2EFF30A5
:100D1400EE001523BC2E28305402031C992E2D30CE
:100D240054020318992ECC30EE001523BC2E233028
:100D34005402031CA52E283054020318A52E993002
:100D4400EE001523BC2E1E305402031CB12E23309A
:100D540054020318B12E6630EE001523BC2E193050
:100D64005402031CBC2E1E3054020318BC2E333014
:080D7400EE001523D62DBD2E63
:100DE400213084002E3083120313F000C330CF006F
:080DF4000630D000662508005E
:0E0D8600463441344E343A344F344E34003447
:020D9400003429
:100D960042346134743474346534723479342034B2
:0E0DA600533479347334743465346D3400344E
:020DB400003409
:0E0DB60076346F346C3474343A3420340034A4
:0E0DC40076346F346C3474343A342034003496
:020DD2000034EB
:0E0DD400543465346D3470343A3420340034B5
:02400E00422F3F
:00000001FF
